{
  "contractName": "TimeAtom",
  "abi": [
    {
      "anonymous": false,
      "inputs": [
        {
          "indexed": true,
          "internalType": "address",
          "name": "_from",
          "type": "address"
        },
        {
          "indexed": false,
          "internalType": "uint256",
          "name": "amount",
          "type": "uint256"
        },
        {
          "indexed": false,
          "internalType": "bool",
          "name": "_value",
          "type": "bool"
        }
      ],
      "name": "AtomReady",
      "type": "event"
    },
    {
      "anonymous": false,
      "inputs": [
        {
          "indexed": true,
          "internalType": "address",
          "name": "_from",
          "type": "address"
        },
        {
          "indexed": true,
          "internalType": "address",
          "name": "_to",
          "type": "address"
        },
        {
          "indexed": false,
          "internalType": "uint256",
          "name": "amount",
          "type": "uint256"
        }
      ],
      "name": "BalanceTransferedToVault",
      "type": "event"
    },
    {
      "anonymous": false,
      "inputs": [
        {
          "indexed": true,
          "internalType": "address",
          "name": "previousOwner",
          "type": "address"
        },
        {
          "indexed": true,
          "internalType": "address",
          "name": "newOwner",
          "type": "address"
        }
      ],
      "name": "OwnershipTransferred",
      "type": "event"
    },
    {
      "anonymous": false,
      "inputs": [
        {
          "indexed": true,
          "internalType": "address",
          "name": "_from",
          "type": "address"
        },
        {
          "indexed": true,
          "internalType": "address",
          "name": "_to",
          "type": "address"
        },
        {
          "indexed": false,
          "internalType": "uint256",
          "name": "amount",
          "type": "uint256"
        }
      ],
      "name": "PaymentReceived",
      "type": "event"
    },
    {
      "anonymous": false,
      "inputs": [
        {
          "indexed": true,
          "internalType": "address",
          "name": "_from",
          "type": "address"
        },
        {
          "indexed": true,
          "internalType": "address",
          "name": "_to",
          "type": "address"
        },
        {
          "indexed": false,
          "internalType": "uint256",
          "name": "amount",
          "type": "uint256"
        },
        {
          "indexed": false,
          "internalType": "string",
          "name": "erc20_name",
          "type": "string"
        }
      ],
      "name": "PaymentReceived",
      "type": "event"
    },
    {
      "inputs": [],
      "name": "ERC20Token",
      "outputs": [
        {
          "internalType": "contract IERC20",
          "name": "",
          "type": "address"
        }
      ],
      "stateMutability": "view",
      "type": "function",
      "constant": true
    },
    {
      "inputs": [
        {
          "internalType": "string",
          "name": "name",
          "type": "string"
        },
        {
          "internalType": "address",
          "name": "erc20_address",
          "type": "address"
        }
      ],
      "name": "addEditERC20Token",
      "outputs": [
        {
          "internalType": "address",
          "name": "",
          "type": "address"
        }
      ],
      "stateMutability": "nonpayable",
      "type": "function"
    },
    {
      "inputs": [
        {
          "internalType": "string",
          "name": "name",
          "type": "string"
        }
      ],
      "name": "getERC20TokenAddress",
      "outputs": [
        {
          "internalType": "address",
          "name": "",
          "type": "address"
        }
      ],
      "stateMutability": "view",
      "type": "function",
      "constant": true
    },
    {
      "inputs": [
        {
          "internalType": "string",
          "name": "name",
          "type": "string"
        }
      ],
      "name": "getERC20TokenBalance",
      "outputs": [
        {
          "internalType": "uint256",
          "name": "",
          "type": "uint256"
        }
      ],
      "stateMutability": "view",
      "type": "function",
      "constant": true
    },
    {
      "inputs": [],
      "name": "owner",
      "outputs": [
        {
          "internalType": "address",
          "name": "",
          "type": "address"
        }
      ],
      "stateMutability": "view",
      "type": "function",
      "constant": true
    },
    {
      "inputs": [
        {
          "internalType": "string",
          "name": "name",
          "type": "string"
        }
      ],
      "name": "removeERC20Token",
      "outputs": [
        {
          "internalType": "bool",
          "name": "",
          "type": "bool"
        }
      ],
      "stateMutability": "nonpayable",
      "type": "function"
    },
    {
      "inputs": [],
      "name": "renounceOwnership",
      "outputs": [],
      "stateMutability": "nonpayable",
      "type": "function"
    },
    {
      "inputs": [
        {
          "internalType": "string",
          "name": "name",
          "type": "string"
        },
        {
          "internalType": "address payable",
          "name": "_to",
          "type": "address"
        }
      ],
      "name": "transferERC20TokenBalance",
      "outputs": [
        {
          "internalType": "uint256",
          "name": "",
          "type": "uint256"
        }
      ],
      "stateMutability": "nonpayable",
      "type": "function"
    },
    {
      "inputs": [
        {
          "internalType": "address",
          "name": "newOwner",
          "type": "address"
        }
      ],
      "name": "transferOwnership",
      "outputs": [],
      "stateMutability": "nonpayable",
      "type": "function"
    },
    {
      "inputs": [],
      "name": "initialize",
      "outputs": [],
      "stateMutability": "nonpayable",
      "type": "function"
    },
    {
      "inputs": [],
      "name": "getVersion",
      "outputs": [
        {
          "internalType": "string",
          "name": "",
          "type": "string"
        }
      ],
      "stateMutability": "pure",
      "type": "function",
      "constant": true
    },
    {
      "inputs": [],
      "name": "transferBalanceToVault",
      "outputs": [],
      "stateMutability": "nonpayable",
      "type": "function"
    },
    {
      "inputs": [
        {
          "internalType": "address payable",
          "name": "new_address",
          "type": "address"
        }
      ],
      "name": "setVaultAddress",
      "outputs": [
        {
          "internalType": "address",
          "name": "",
          "type": "address"
        }
      ],
      "stateMutability": "nonpayable",
      "type": "function"
    },
    {
      "inputs": [
        {
          "internalType": "uint256",
          "name": "nb_days",
          "type": "uint256"
        }
      ],
      "name": "setFreePeriod",
      "outputs": [
        {
          "internalType": "uint256",
          "name": "",
          "type": "uint256"
        }
      ],
      "stateMutability": "nonpayable",
      "type": "function"
    },
    {
      "inputs": [],
      "name": "getFreePeriod",
      "outputs": [
        {
          "internalType": "uint256",
          "name": "",
          "type": "uint256"
        }
      ],
      "stateMutability": "view",
      "type": "function",
      "constant": true
    },
    {
      "inputs": [],
      "name": "getBalance",
      "outputs": [
        {
          "internalType": "uint256",
          "name": "",
          "type": "uint256"
        }
      ],
      "stateMutability": "view",
      "type": "function",
      "constant": true
    },
    {
      "inputs": [
        {
          "internalType": "uint256",
          "name": "fee",
          "type": "uint256"
        }
      ],
      "name": "setPricePerDay",
      "outputs": [
        {
          "internalType": "uint256",
          "name": "",
          "type": "uint256"
        }
      ],
      "stateMutability": "nonpayable",
      "type": "function"
    },
    {
      "inputs": [],
      "name": "getPricePerDay",
      "outputs": [
        {
          "internalType": "uint256",
          "name": "",
          "type": "uint256"
        }
      ],
      "stateMutability": "view",
      "type": "function",
      "constant": true
    },
    {
      "inputs": [
        {
          "internalType": "uint256",
          "name": "fee",
          "type": "uint256"
        }
      ],
      "name": "setEntryFee",
      "outputs": [
        {
          "internalType": "uint256",
          "name": "",
          "type": "uint256"
        }
      ],
      "stateMutability": "nonpayable",
      "type": "function"
    },
    {
      "inputs": [],
      "name": "getEntryFee",
      "outputs": [
        {
          "internalType": "uint256",
          "name": "",
          "type": "uint256"
        }
      ],
      "stateMutability": "view",
      "type": "function",
      "constant": true
    },
    {
      "inputs": [],
      "name": "getVaultAddress",
      "outputs": [
        {
          "internalType": "address",
          "name": "",
          "type": "address"
        }
      ],
      "stateMutability": "view",
      "type": "function",
      "constant": true
    },
    {
      "inputs": [
        {
          "internalType": "uint256",
          "name": "endDate",
          "type": "uint256"
        }
      ],
      "name": "calculateFee",
      "outputs": [
        {
          "internalType": "uint256",
          "name": "",
          "type": "uint256"
        }
      ],
      "stateMutability": "view",
      "type": "function",
      "constant": true
    },
    {
      "inputs": [
        {
          "internalType": "uint256",
          "name": "index",
          "type": "uint256"
        }
      ],
      "name": "migrate_one",
      "outputs": [
        {
          "internalType": "bytes",
          "name": "",
          "type": "bytes"
        }
      ],
      "stateMutability": "view",
      "type": "function",
      "constant": true
    },
    {
      "inputs": [
        {
          "internalType": "string",
          "name": "hashKey",
          "type": "string"
        }
      ],
      "name": "checkHashKey",
      "outputs": [
        {
          "internalType": "bool",
          "name": "",
          "type": "bool"
        }
      ],
      "stateMutability": "view",
      "type": "function",
      "constant": true
    },
    {
      "inputs": [
        {
          "internalType": "string",
          "name": "hashKey",
          "type": "string"
        },
        {
          "internalType": "string",
          "name": "_public_content",
          "type": "string"
        },
        {
          "internalType": "string",
          "name": "_timelocked_content",
          "type": "string"
        },
        {
          "internalType": "uint256",
          "name": "opening_date",
          "type": "uint256"
        }
      ],
      "name": "makeAtom",
      "outputs": [],
      "stateMutability": "payable",
      "type": "function",
      "payable": true
    },
    {
      "inputs": [
        {
          "internalType": "string",
          "name": "erc20_name",
          "type": "string"
        },
        {
          "internalType": "string",
          "name": "name",
          "type": "string"
        },
        {
          "internalType": "string",
          "name": "_public_content",
          "type": "string"
        },
        {
          "internalType": "string",
          "name": "_timelocked_content",
          "type": "string"
        },
        {
          "internalType": "uint256",
          "name": "opening_date",
          "type": "uint256"
        },
        {
          "internalType": "uint256",
          "name": "msgValue",
          "type": "uint256"
        }
      ],
      "name": "makeAtomERC20",
      "outputs": [],
      "stateMutability": "nonpayable",
      "type": "function"
    },
    {
      "inputs": [
        {
          "internalType": "string",
          "name": "hashKey",
          "type": "string"
        }
      ],
      "name": "getAtom",
      "outputs": [
        {
          "internalType": "bytes",
          "name": "",
          "type": "bytes"
        }
      ],
      "stateMutability": "view",
      "type": "function",
      "constant": true
    },
    {
      "inputs": [
        {
          "internalType": "string",
          "name": "hashKey",
          "type": "string"
        }
      ],
      "name": "getPublicContent",
      "outputs": [
        {
          "internalType": "bytes",
          "name": "",
          "type": "bytes"
        }
      ],
      "stateMutability": "view",
      "type": "function",
      "constant": true
    }
  ],
  "bytecode": "0x608060405234801561001057600080fd5b50614915806100206000396000f3fe6080604052600436106101b65760003560e01c80638129fc1c116100ec578063ba75f5081161008a578063c17e234b11610064578063c17e234b146111ea578063e586a4f01461129e578063eb770d0c146112c9578063f2fde38b14611318576101b6565b8063ba75f50814610fc1578063bafcc649146110bd578063bff5dfeb1461110c576101b6565b80638da5cb5b116100c65780638da5cb5b14610df057806399a5d74714610e315780639ee5813c14610e80578063a9e22da414610f72576101b6565b80638129fc1c14610c4c57806385535cc514610c6357806388f9f87914610cde576101b6565b806361c96a75116101595780637a80760e116101335780637a80760e146108775780637db8f8e6146108b85780637f395bbc146108cf578063804621c5146109ab576101b6565b806361c96a751461062c57806365cacaa41461081f578063715018a614610860576101b6565b80631c0b46b7116101955780631c0b46b7146102a15780633aafab271461037f57806344bdeb1e146104c05780634f84f12314610601576101b6565b806252904d146101bb5780630d8e6e2c146101e657806312065fe014610276575b600080fd5b3480156101c757600080fd5b506101d0611369565b6040518082815260200191505060405180910390f35b3480156101f257600080fd5b506101fb61143d565b6040518080602001828103825283818151815260200191508051906020019080838360005b8381101561023b578082015181840152602081019050610220565b50505050905090810190601f1680156102685780820380516001836020036101000a031916815260200191505b509250505060405180910390f35b34801561028257600080fd5b5061028b61147a565b6040518082815260200191505060405180910390f35b3480156102ad57600080fd5b50610367600480360360208110156102c457600080fd5b81019080803590602001906401000000008111156102e157600080fd5b8201836020820111156102f357600080fd5b8035906020019184600183028401116401000000008311171561031557600080fd5b91908080601f016020809104026020016040519081016040528093929190818152602001838380828437600081840152601f19601f82011690508083019250505050505050919291929050505061154c565b60405180821515815260200191505060405180910390f35b34801561038b57600080fd5b50610445600480360360208110156103a257600080fd5b81019080803590602001906401000000008111156103bf57600080fd5b8201836020820111156103d157600080fd5b803590602001918460018302840111640100000000831117156103f357600080fd5b91908080601f016020809104026020016040519081016040528093929190818152602001838380828437600081840152601f19601f8201169050808301925050505050505091929192905050506116ad565b6040518080602001828103825283818151815260200191508051906020019080838360005b8381101561048557808201518184015260208101905061046a565b50505050905090810190601f1680156104b25780820380516001836020036101000a031916815260200191505b509250505060405180910390f35b3480156104cc57600080fd5b50610586600480360360208110156104e357600080fd5b810190808035906020019064010000000081111561050057600080fd5b82018360208201111561051257600080fd5b8035906020019184600183028401116401000000008311171561053457600080fd5b91908080601f016020809104026020016040519081016040528093929190818152602001838380828437600081840152601f19601f82011690508083019250505050505050919291929050505061190f565b6040518080602001828103825283818151815260200191508051906020019080838360005b838110156105c65780820151818401526020810190506105ab565b50505050905090810190601f1680156105f35780820380516001836020036101000a031916815260200191505b509250505060405180910390f35b34801561060d57600080fd5b50610616611cab565b6040518082815260200191505060405180910390f35b61081d6004803603608081101561064257600080fd5b810190808035906020019064010000000081111561065f57600080fd5b82018360208201111561067157600080fd5b8035906020019184600183028401116401000000008311171561069357600080fd5b91908080601f016020809104026020016040519081016040528093929190818152602001838380828437600081840152601f19601f820116905080830192505050505050509192919290803590602001906401000000008111156106f657600080fd5b82018360208201111561070857600080fd5b8035906020019184600183028401116401000000008311171561072a57600080fd5b91908080601f016020809104026020016040519081016040528093929190818152602001838380828437600081840152601f19601f8201169050808301925050505050505091929192908035906020019064010000000081111561078d57600080fd5b82018360208201111561079f57600080fd5b803590602001918460018302840111640100000000831117156107c157600080fd5b91908080601f016020809104026020016040519081016040528093929190818152602001838380828437600081840152601f19601f82011690508083019250505050505050919291929080359060200190929190505050611d7f565b005b34801561082b57600080fd5b50610834611f1d565b604051808273ffffffffffffffffffffffffffffffffffffffff16815260200191505060405180910390f35b34801561086c57600080fd5b50610875612011565b005b34801561088357600080fd5b5061088c61219c565b604051808273ffffffffffffffffffffffffffffffffffffffff16815260200191505060405180910390f35b3480156108c457600080fd5b506108cd6121c2565b005b3480156108db57600080fd5b50610995600480360360208110156108f257600080fd5b810190808035906020019064010000000081111561090f57600080fd5b82018360208201111561092157600080fd5b8035906020019184600183028401116401000000008311171561094357600080fd5b91908080601f016020809104026020016040519081016040528093929190818152602001838380828437600081840152601f19601f8201169050808301925050505050505091929192905050506123b5565b6040518082815260200191505060405180910390f35b3480156109b757600080fd5b50610c4a600480360360c08110156109ce57600080fd5b81019080803590602001906401000000008111156109eb57600080fd5b8201836020820111156109fd57600080fd5b80359060200191846001830284011164010000000083111715610a1f57600080fd5b91908080601f016020809104026020016040519081016040528093929190818152602001838380828437600081840152601f19601f82011690508083019250505050505050919291929080359060200190640100000000811115610a8257600080fd5b820183602082011115610a9457600080fd5b80359060200191846001830284011164010000000083111715610ab657600080fd5b91908080601f016020809104026020016040519081016040528093929190818152602001838380828437600081840152601f19601f82011690508083019250505050505050919291929080359060200190640100000000811115610b1957600080fd5b820183602082011115610b2b57600080fd5b80359060200191846001830284011164010000000083111715610b4d57600080fd5b91908080601f016020809104026020016040519081016040528093929190818152602001838380828437600081840152601f19601f82011690508083019250505050505050919291929080359060200190640100000000811115610bb057600080fd5b820183602082011115610bc257600080fd5b80359060200191846001830284011164010000000083111715610be457600080fd5b91908080601f016020809104026020016040519081016040528093929190818152602001838380828437600081840152601f19601f82011690508083019250505050505050919291929080359060200190929190803590602001909291905050506125b9565b005b348015610c5857600080fd5b50610c61612618565b005b348015610c6f57600080fd5b50610cb260048036036020811015610c8657600080fd5b81019080803573ffffffffffffffffffffffffffffffffffffffff169060200190929190505050612773565b604051808273ffffffffffffffffffffffffffffffffffffffff16815260200191505060405180910390f35b348015610cea57600080fd5b50610dc460048036036040811015610d0157600080fd5b8101908080359060200190640100000000811115610d1e57600080fd5b820183602082011115610d3057600080fd5b80359060200191846001830284011164010000000083111715610d5257600080fd5b91908080601f016020809104026020016040519081016040528093929190818152602001838380828437600081840152601f19601f820116905080830192505050505050509192919290803573ffffffffffffffffffffffffffffffffffffffff1690602001909291905050506128aa565b604051808273ffffffffffffffffffffffffffffffffffffffff16815260200191505060405180910390f35b348015610dfc57600080fd5b50610e05612a27565b604051808273ffffffffffffffffffffffffffffffffffffffff16815260200191505060405180910390f35b348015610e3d57600080fd5b50610e6a60048036036020811015610e5457600080fd5b8101908080359060200190929190505050612a51565b6040518082815260200191505060405180910390f35b348015610e8c57600080fd5b50610f4660048036036020811015610ea357600080fd5b8101908080359060200190640100000000811115610ec057600080fd5b820183602082011115610ed257600080fd5b80359060200191846001830284011164010000000083111715610ef457600080fd5b91908080601f016020809104026020016040519081016040528093929190818152602001838380828437600081840152601f19601f820116905080830192505050505050509192919290505050612ac1565b604051808273ffffffffffffffffffffffffffffffffffffffff16815260200191505060405180910390f35b348015610f7e57600080fd5b50610fab60048036036020811015610f9557600080fd5b8101908080359060200190929190505050612c1e565b6040518082815260200191505060405180910390f35b348015610fcd57600080fd5b506110a760048036036040811015610fe457600080fd5b810190808035906020019064010000000081111561100157600080fd5b82018360208201111561101357600080fd5b8035906020019184600183028401116401000000008311171561103557600080fd5b91908080601f016020809104026020016040519081016040528093929190818152602001838380828437600081840152601f19601f820116905080830192505050505050509192919290803573ffffffffffffffffffffffffffffffffffffffff169060200190929190505050612cfb565b6040518082815260200191505060405180910390f35b3480156110c957600080fd5b506110f6600480360360208110156110e057600080fd5b8101908080359060200190929190505050612fcc565b6040518082815260200191505060405180910390f35b34801561111857600080fd5b506111d26004803603602081101561112f57600080fd5b810190808035906020019064010000000081111561114c57600080fd5b82018360208201111561115e57600080fd5b8035906020019184600183028401116401000000008311171561118057600080fd5b91908080601f016020809104026020016040519081016040528093929190818152602001838380828437600081840152601f19601f8201169050808301925050505050505091929192905050506130a9565b60405180821515815260200191505060405180910390f35b3480156111f657600080fd5b506112236004803603602081101561120d57600080fd5b8101908080359060200190929190505050613129565b6040518080602001828103825283818151815260200191508051906020019080838360005b83811015611263578082015181840152602081019050611248565b50505050905090810190601f1680156112905780820380516001836020036101000a031916815260200191505b509250505060405180910390f35b3480156112aa57600080fd5b506112b36132ac565b6040518082815260200191505060405180910390f35b3480156112d557600080fd5b50611302600480360360208110156112ec57600080fd5b8101908080359060200190929190505050613380565b6040518082815260200191505060405180910390f35b34801561132457600080fd5b506113676004803603602081101561133b57600080fd5b81019080803573ffffffffffffffffffffffffffffffffffffffff16906020019092919050505061345d565b005b600061137361366d565b73ffffffffffffffffffffffffffffffffffffffff16606560009054906101000a900473ffffffffffffffffffffffffffffffffffffffff1673ffffffffffffffffffffffffffffffffffffffff1614611435576040517f08c379a00000000000000000000000000000000000000000000000000000000081526004018080602001828103825260208152602001807f4f776e61626c653a2063616c6c6572206973206e6f7420746865206f776e657281525060200191505060405180910390fd5b609e54905090565b60606040518060400160405280600581526020017f312e312e30000000000000000000000000000000000000000000000000000000815250905090565b600061148461366d565b73ffffffffffffffffffffffffffffffffffffffff16606560009054906101000a900473ffffffffffffffffffffffffffffffffffffffff1673ffffffffffffffffffffffffffffffffffffffff1614611546576040517f08c379a00000000000000000000000000000000000000000000000000000000081526004018080602001828103825260208152602001807f4f776e61626c653a2063616c6c6572206973206e6f7420746865206f776e657281525060200191505060405180910390fd5b47905090565b600061155661366d565b73ffffffffffffffffffffffffffffffffffffffff16606560009054906101000a900473ffffffffffffffffffffffffffffffffffffffff1673ffffffffffffffffffffffffffffffffffffffff1614611618576040517f08c379a00000000000000000000000000000000000000000000000000000000081526004018080602001828103825260208152602001807f4f776e61626c653a2063616c6c6572206973206e6f7420746865206f776e657281525060200191505060405180910390fd5b6097826040518082805190602001908083835b6020831061164e578051825260208201915060208101905060208303925061162b565b6001836020036101000a038019825116818451168082178552505050505050905001915050908152602001604051809103902060006101000a81549073ffffffffffffffffffffffffffffffffffffffff021916905560019050919050565b60606099826040518082805190602001908083835b602083106116e557805182526020820191506020810190506020830392506116c2565b6001836020036101000a038019825116818451168082178552505050505050905001915050908152602001604051809103902060009054906101000a900460ff16156118ad57609b826040518082805190602001908083835b60208310611761578051825260208201915060208101905060208303925061173e565b6001836020036101000a0380198251168184511680821785525050505050509050019150509081526020016040518091039020609c836040518082805190602001908083835b602083106117ca57805182526020820191506020810190506020830392506117a7565b6001836020036101000a03801982511681845116808217855250505050505090500191505090815260200160405180910390205460405160200180806020018381526020018281038252848181546001816001161561010002031660029004815260200191508054600181600116156101000203166002900480156118905780601f1061186557610100808354040283529160200191611890565b820191906000526020600020905b81548152906001019060200180831161187357829003601f168201915b50509350505050604051602081830303815290604052905061190a565b60006040516020018080602001838152602001828103825260018152602001807f30000000000000000000000000000000000000000000000000000000000000008152506020019250505060405160208183030381529060405290505b919050565b60606099826040518082805190602001908083835b602083106119475780518252602082019150602081019050602083039250611924565b6001836020036101000a038019825116818451168082178552505050505050905001915050908152602001604051809103902060009054906101000a900460ff1615611c4957609c826040518082805190602001908083835b602083106119c357805182526020820191506020810190506020830392506119a0565b6001836020036101000a038019825116818451168082178552505050505050905001915050908152602001604051809103902054421115611b8057609a826040518082805190602001908083835b60208310611a345780518252602082019150602081019050602083039250611a11565b6001836020036101000a0380198251168184511680821785525050505050509050019150509081526020016040518091039020609c836040518082805190602001908083835b60208310611a9d5780518252602082019150602081019050602083039250611a7a565b6001836020036101000a0380198251168184511680821785525050505050509050019150509081526020016040518091039020546040516020018080602001838152602001828103825284818154600181600116156101000203166002900481526020019150805460018160011615610100020316600290048015611b635780601f10611b3857610100808354040283529160200191611b63565b820191906000526020600020905b815481529060010190602001808311611b4657829003601f168201915b505093505050506040516020818303038152906040529050611ca6565b609c826040518082805190602001908083835b60208310611bb65780518252602082019150602081019050602083039250611b93565b6001836020036101000a0380198251168184511680821785525050505050509050019150509081526020016040518091039020546040516020018080602001838152602001828103825260018152602001807f3000000000000000000000000000000000000000000000000000000000000000815250602001925050506040516020818303038152906040529050611ca6565b60006040516020018080602001838152602001828103825260018152602001807f30000000000000000000000000000000000000000000000000000000000000008152506020019250505060405160208183030381529060405290505b919050565b6000611cb561366d565b73ffffffffffffffffffffffffffffffffffffffff16606560009054906101000a900473ffffffffffffffffffffffffffffffffffffffff1673ffffffffffffffffffffffffffffffffffffffff1614611d77576040517f08c379a00000000000000000000000000000000000000000000000000000000081526004018080602001828103825260208152602001807f4f776e61626c653a2063616c6c6572206973206e6f7420746865206f776e657281525060200191505060405180910390fd5b60a154905090565b6000611d8a82612a51565b905080341015611e02576040517f08c379a00000000000000000000000000000000000000000000000000000000081526004018080602001828103825260138152602001807f496e73756666696369656e7420416d6f756e740000000000000000000000000081525060200191505060405180910390fd5b611e0b85613675565b611ea857611e1c85858585346136f5565b60a060009054906101000a900473ffffffffffffffffffffffffffffffffffffffff1673ffffffffffffffffffffffffffffffffffffffff163373ffffffffffffffffffffffffffffffffffffffff167f45fdc265dc29885b9a485766b03e70978440d38c7c328ee0a14fa40c76c6af54346040518082815260200191505060405180910390a3611f16565b6040517f08c379a00000000000000000000000000000000000000000000000000000000081526004018080602001828103825260178152602001807f54696d6541746f6d20616c72656164792065786973747300000000000000000081525060200191505060405180910390fd5b5050505050565b6000611f2761366d565b73ffffffffffffffffffffffffffffffffffffffff16606560009054906101000a900473ffffffffffffffffffffffffffffffffffffffff1673ffffffffffffffffffffffffffffffffffffffff1614611fe9576040517f08c379a00000000000000000000000000000000000000000000000000000000081526004018080602001828103825260208152602001807f4f776e61626c653a2063616c6c6572206973206e6f7420746865206f776e657281525060200191505060405180910390fd5b60a060009054906101000a900473ffffffffffffffffffffffffffffffffffffffff16905090565b61201961366d565b73ffffffffffffffffffffffffffffffffffffffff16606560009054906101000a900473ffffffffffffffffffffffffffffffffffffffff1673ffffffffffffffffffffffffffffffffffffffff16146120db576040517f08c379a00000000000000000000000000000000000000000000000000000000081526004018080602001828103825260208152602001807f4f776e61626c653a2063616c6c6572206973206e6f7420746865206f776e657281525060200191505060405180910390fd5b600073ffffffffffffffffffffffffffffffffffffffff16606560009054906101000a900473ffffffffffffffffffffffffffffffffffffffff1673ffffffffffffffffffffffffffffffffffffffff167f8be0079c531659141344cd1fd0a4f28419497f9722a3daafe3b4186f6b6457e060405160405180910390a36000606560006101000a81548173ffffffffffffffffffffffffffffffffffffffff021916908373ffffffffffffffffffffffffffffffffffffffff160217905550565b609860009054906101000a900473ffffffffffffffffffffffffffffffffffffffff1681565b6121ca61366d565b73ffffffffffffffffffffffffffffffffffffffff16606560009054906101000a900473ffffffffffffffffffffffffffffffffffffffff1673ffffffffffffffffffffffffffffffffffffffff161461228c576040517f08c379a00000000000000000000000000000000000000000000000000000000081526004018080602001828103825260208152602001807f4f776e61626c653a2063616c6c6572206973206e6f7420746865206f776e657281525060200191505060405180910390fd5b60004790506000606060a060009054906101000a900473ffffffffffffffffffffffffffffffffffffffff1673ffffffffffffffffffffffffffffffffffffffff16835a90604051806000019050600060405180830381858888f193505050503d8060008114612318576040519150601f19603f3d011682016040523d82523d6000602084013e61231d565b606091505b509150915081156123b05760a060009054906101000a900473ffffffffffffffffffffffffffffffffffffffff1673ffffffffffffffffffffffffffffffffffffffff163373ffffffffffffffffffffffffffffffffffffffff167fb476fdade5ec49d3525b6507c0b233221c603f3a0a9ff29231c9e66486281175856040518082815260200191505060405180910390a35b505050565b60006123bf61366d565b73ffffffffffffffffffffffffffffffffffffffff16606560009054906101000a900473ffffffffffffffffffffffffffffffffffffffff1673ffffffffffffffffffffffffffffffffffffffff1614612481576040517f08c379a00000000000000000000000000000000000000000000000000000000081526004018080602001828103825260208152602001807f4f776e61626c653a2063616c6c6572206973206e6f7420746865206f776e657281525060200191505060405180910390fd5b60006097836040518082805190602001908083835b602083106124b95780518252602082019150602081019050602083039250612496565b6001836020036101000a038019825116818451168082178552505050505050905001915050908152602001604051809103902060009054906101000a900473ffffffffffffffffffffffffffffffffffffffff1690508073ffffffffffffffffffffffffffffffffffffffff166370a08231306040518263ffffffff1660e01b8152600401808273ffffffffffffffffffffffffffffffffffffffff16815260200191505060206040518083038186803b15801561257657600080fd5b505afa15801561258a573d6000803e3d6000fd5b505050506040513d60208110156125a057600080fd5b8101908080519060200190929190505050915050919050565b6125c285613675565b6126105760006125d183612a51565b9050612601878260a060009054906101000a900473ffffffffffffffffffffffffffffffffffffffff1685613a7e565b61260e86858786866136f5565b505b505050505050565b600060019054906101000a900460ff16806126375750612636613ef8565b5b8061264d575060008054906101000a900460ff16155b6126a2576040517f08c379a000000000000000000000000000000000000000000000000000000000815260040180806020018281038252602e815260200180614888602e913960400191505060405180910390fd5b60008060019054906101000a900460ff1615905080156126f2576001600060016101000a81548160ff02191690831515021790555060016000806101000a81548160ff0219169083151502179055505b6126fa613f0f565b7302e32df164bac1ca34d7f0fc95ad665e2a41d3cf60a060006101000a81548173ffffffffffffffffffffffffffffffffffffffff021916908373ffffffffffffffffffffffffffffffffffffffff16021790555080156127705760008060016101000a81548160ff0219169083151502179055505b50565b600061277d61366d565b73ffffffffffffffffffffffffffffffffffffffff16606560009054906101000a900473ffffffffffffffffffffffffffffffffffffffff1673ffffffffffffffffffffffffffffffffffffffff161461283f576040517f08c379a00000000000000000000000000000000000000000000000000000000081526004018080602001828103825260208152602001807f4f776e61626c653a2063616c6c6572206973206e6f7420746865206f776e657281525060200191505060405180910390fd5b8160a060006101000a81548173ffffffffffffffffffffffffffffffffffffffff021916908373ffffffffffffffffffffffffffffffffffffffff16021790555060a060009054906101000a900473ffffffffffffffffffffffffffffffffffffffff169050919050565b60006128b461366d565b73ffffffffffffffffffffffffffffffffffffffff16606560009054906101000a900473ffffffffffffffffffffffffffffffffffffffff1673ffffffffffffffffffffffffffffffffffffffff1614612976576040517f08c379a00000000000000000000000000000000000000000000000000000000081526004018080602001828103825260208152602001807f4f776e61626c653a2063616c6c6572206973206e6f7420746865206f776e657281525060200191505060405180910390fd5b816097846040518082805190602001908083835b602083106129ad578051825260208201915060208101905060208303925061298a565b6001836020036101000a038019825116818451168082178552505050505050905001915050908152602001604051809103902060006101000a81548173ffffffffffffffffffffffffffffffffffffffff021916908373ffffffffffffffffffffffffffffffffffffffff16021790555081905092915050565b6000606560009054906101000a900473ffffffffffffffffffffffffffffffffffffffff16905090565b600080600042841115612a81576018603c8042870381612a6d57fe5b0481612a7557fe5b0481612a7d57fe5b0491505b6001821015612a8f57600191505b60a154821015612aa25760009050612ab7565b662386f26fc10000609f5483609e5402010290505b8092505050919050565b6000612acb61366d565b73ffffffffffffffffffffffffffffffffffffffff16606560009054906101000a900473ffffffffffffffffffffffffffffffffffffffff1673ffffffffffffffffffffffffffffffffffffffff1614612b8d576040517f08c379a00000000000000000000000000000000000000000000000000000000081526004018080602001828103825260208152602001807f4f776e61626c653a2063616c6c6572206973206e6f7420746865206f776e657281525060200191505060405180910390fd5b6097826040518082805190602001908083835b60208310612bc35780518252602082019150602081019050602083039250612ba0565b6001836020036101000a038019825116818451168082178552505050505050905001915050908152602001604051809103902060009054906101000a900473ffffffffffffffffffffffffffffffffffffffff169050919050565b6000612c2861366d565b73ffffffffffffffffffffffffffffffffffffffff16606560009054906101000a900473ffffffffffffffffffffffffffffffffffffffff1673ffffffffffffffffffffffffffffffffffffffff1614612cea576040517f08c379a00000000000000000000000000000000000000000000000000000000081526004018080602001828103825260208152602001807f4f776e61626c653a2063616c6c6572206973206e6f7420746865206f776e657281525060200191505060405180910390fd5b81609e81905550609e549050919050565b6000612d0561366d565b73ffffffffffffffffffffffffffffffffffffffff16606560009054906101000a900473ffffffffffffffffffffffffffffffffffffffff1673ffffffffffffffffffffffffffffffffffffffff1614612dc7576040517f08c379a00000000000000000000000000000000000000000000000000000000081526004018080602001828103825260208152602001807f4f776e61626c653a2063616c6c6572206973206e6f7420746865206f776e657281525060200191505060405180910390fd5b60006097846040518082805190602001908083835b60208310612dff5780518252602082019150602081019050602083039250612ddc565b6001836020036101000a038019825116818451168082178552505050505050905001915050908152602001604051809103902060009054906101000a900473ffffffffffffffffffffffffffffffffffffffff169050612f21838273ffffffffffffffffffffffffffffffffffffffff166370a08231306040518263ffffffff1660e01b8152600401808273ffffffffffffffffffffffffffffffffffffffff16815260200191505060206040518083038186803b158015612ec057600080fd5b505afa158015612ed4573d6000803e3d6000fd5b505050506040513d6020811015612eea57600080fd5b81019080805190602001909291905050508373ffffffffffffffffffffffffffffffffffffffff1661401d9092919063ffffffff16565b8073ffffffffffffffffffffffffffffffffffffffff166370a08231306040518263ffffffff1660e01b8152600401808273ffffffffffffffffffffffffffffffffffffffff16815260200191505060206040518083038186803b158015612f8857600080fd5b505afa158015612f9c573d6000803e3d6000fd5b505050506040513d6020811015612fb257600080fd5b810190808051906020019092919050505091505092915050565b6000612fd661366d565b73ffffffffffffffffffffffffffffffffffffffff16606560009054906101000a900473ffffffffffffffffffffffffffffffffffffffff1673ffffffffffffffffffffffffffffffffffffffff1614613098576040517f08c379a00000000000000000000000000000000000000000000000000000000081526004018080602001828103825260208152602001807f4f776e61626c653a2063616c6c6572206973206e6f7420746865206f776e657281525060200191505060405180910390fd5b8160a18190555060a1549050919050565b60006099826040518082805190602001908083835b602083106130e157805182526020820191506020810190506020830392506130be565b6001836020036101000a038019825116818451168082178552505050505050905001915050908152602001604051809103902060009054906101000a900460ff169050919050565b606061313361366d565b73ffffffffffffffffffffffffffffffffffffffff16606560009054906101000a900473ffffffffffffffffffffffffffffffffffffffff1673ffffffffffffffffffffffffffffffffffffffff16146131f5576040517f08c379a00000000000000000000000000000000000000000000000000000000081526004018080602001828103825260208152602001807f4f776e61626c653a2063616c6c6572206973206e6f7420746865206f776e657281525060200191505060405180910390fd5b609d828154811061320257fe5b906000526020600020018054600181600116156101000203166002900480601f0160208091040260200160405190810160405280929190818152602001828054600181600116156101000203166002900480156132a05780601f10613275576101008083540402835291602001916132a0565b820191906000526020600020905b81548152906001019060200180831161328357829003601f168201915b50505050509050919050565b60006132b661366d565b73ffffffffffffffffffffffffffffffffffffffff16606560009054906101000a900473ffffffffffffffffffffffffffffffffffffffff1673ffffffffffffffffffffffffffffffffffffffff1614613378576040517f08c379a00000000000000000000000000000000000000000000000000000000081526004018080602001828103825260208152602001807f4f776e61626c653a2063616c6c6572206973206e6f7420746865206f776e657281525060200191505060405180910390fd5b609f54905090565b600061338a61366d565b73ffffffffffffffffffffffffffffffffffffffff16606560009054906101000a900473ffffffffffffffffffffffffffffffffffffffff1673ffffffffffffffffffffffffffffffffffffffff161461344c576040517f08c379a00000000000000000000000000000000000000000000000000000000081526004018080602001828103825260208152602001807f4f776e61626c653a2063616c6c6572206973206e6f7420746865206f776e657281525060200191505060405180910390fd5b81609f81905550609f549050919050565b61346561366d565b73ffffffffffffffffffffffffffffffffffffffff16606560009054906101000a900473ffffffffffffffffffffffffffffffffffffffff1673ffffffffffffffffffffffffffffffffffffffff1614613527576040517f08c379a00000000000000000000000000000000000000000000000000000000081526004018080602001828103825260208152602001807f4f776e61626c653a2063616c6c6572206973206e6f7420746865206f776e657281525060200191505060405180910390fd5b600073ffffffffffffffffffffffffffffffffffffffff168173ffffffffffffffffffffffffffffffffffffffff1614156135ad576040517f08c379a00000000000000000000000000000000000000000000000000000000081526004018080602001828103825260268152602001806148626026913960400191505060405180910390fd5b8073ffffffffffffffffffffffffffffffffffffffff16606560009054906101000a900473ffffffffffffffffffffffffffffffffffffffff1673ffffffffffffffffffffffffffffffffffffffff167f8be0079c531659141344cd1fd0a4f28419497f9722a3daafe3b4186f6b6457e060405160405180910390a380606560006101000a81548173ffffffffffffffffffffffffffffffffffffffff021916908373ffffffffffffffffffffffffffffffffffffffff16021790555050565b600033905090565b60006099826040518082805190602001908083835b602083106136ad578051825260208201915060208101905060208303925061368a565b6001836020036101000a038019825116818451168082178552505050505050905001915050908152602001604051809103902060009054906101000a900460ff169050919050565b6136fe85613675565b613a095761370b856140bf565b5083609b866040518082805190602001908083835b602083106137435780518252602082019150602081019050602083039250613720565b6001836020036101000a03801982511681845116808217855250505050505090500191505090815260200160405180910390209080519060200190613789929190614744565b5082609a866040518082805190602001908083835b602083106137c1578051825260208201915060208101905060208303925061379e565b6001836020036101000a03801982511681845116808217855250505050505090500191505090815260200160405180910390209080519060200190613807929190614744565b5081609c866040518082805190602001908083835b6020831061383f578051825260208201915060208101905060208303925061381c565b6001836020036101000a038019825116818451168082178552505050505050905001915050908152602001604051809103902081905550609d838387604051602001808060200184815260200180602001838103835286818151815260200191508051906020019080838360005b838110156138c85780820151818401526020810190506138ad565b50505050905090810190601f1680156138f55780820380516001836020036101000a031916815260200191505b50838103825284818151815260200191508051906020019080838360005b8381101561392e578082015181840152602081019050613913565b50505050905090810190601f16801561395b5780820380516001836020036101000a031916815260200191505b50955050505050506040516020818303038152906040529080600181540180825580915050600190039060005260206000200160009091909190915090805190602001906139aa9291906147c4565b503373ffffffffffffffffffffffffffffffffffffffff167f3141e3869a260653a351e715e026cfb2d58f271e767180cfec66bfa9bfe25f548260016040518083815260200182151581526020019250505060405180910390a2613a77565b6040517f08c379a000000000000000000000000000000000000000000000000000000000815260040180806020018281038252601f8152602001807f54696d6541746f6d20616c726561647920616c7265616479206578697374730081525060200191505060405180910390fd5b5050505050565b600073ffffffffffffffffffffffffffffffffffffffff166097856040518082805190602001908083835b60208310613acc5780518252602082019150602081019050602083039250613aa9565b6001836020036101000a038019825116818451168082178552505050505050905001915050908152602001604051809103902060009054906101000a900473ffffffffffffffffffffffffffffffffffffffff1673ffffffffffffffffffffffffffffffffffffffff161415613baa576040517f08c379a00000000000000000000000000000000000000000000000000000000081526004018080602001828103825260198152602001807f5468697320746f6b656e206973206e6f7420616c6c6f7765640000000000000081525060200191505060405180910390fd5b6097846040518082805190602001908083835b60208310613be05780518252602082019150602081019050602083039250613bbd565b6001836020036101000a038019825116818451168082178552505050505050905001915050908152602001604051809103902060009054906101000a900473ffffffffffffffffffffffffffffffffffffffff16609860006101000a81548173ffffffffffffffffffffffffffffffffffffffff021916908373ffffffffffffffffffffffffffffffffffffffff1602179055506000609860009054906101000a900473ffffffffffffffffffffffffffffffffffffffff1673ffffffffffffffffffffffffffffffffffffffff1663dd62ed3e33306040518363ffffffff1660e01b8152600401808373ffffffffffffffffffffffffffffffffffffffff1681526020018273ffffffffffffffffffffffffffffffffffffffff1681526020019250505060206040518083038186803b158015613d1d57600080fd5b505afa158015613d31573d6000803e3d6000fd5b505050506040513d6020811015613d4757600080fd5b8101908080519060200190929190505050905080841115613dd0576040517f08c379a00000000000000000000000000000000000000000000000000000000081526004018080602001828103825260148152602001807f496e73756666696369656e742062616c616e636500000000000000000000000081525060200191505060405180910390fd5b613e1f338484609860009054906101000a900473ffffffffffffffffffffffffffffffffffffffff1673ffffffffffffffffffffffffffffffffffffffff16614148909392919063ffffffff16565b8273ffffffffffffffffffffffffffffffffffffffff163373ffffffffffffffffffffffffffffffffffffffff167f0da8e031922d6bdf36a83b26ef74cd487e4ec7945a6abf37b9b8cf1b194788fd84886040518083815260200180602001828103825283818151815260200191508051906020019080838360005b83811015613eb6578082015181840152602081019050613e9b565b50505050905090810190601f168015613ee35780820380516001836020036101000a031916815260200191505b50935050505060405180910390a35050505050565b6000803090506000813b9050600081149250505090565b600060019054906101000a900460ff1680613f2e5750613f2d613ef8565b5b80613f44575060008054906101000a900460ff16155b613f99576040517f08c379a000000000000000000000000000000000000000000000000000000000815260040180806020018281038252602e815260200180614888602e913960400191505060405180910390fd5b60008060019054906101000a900460ff161590508015613fe9576001600060016101000a81548160ff02191690831515021790555060016000806101000a81548160ff0219169083151502179055505b613ff1614209565b613ff9614307565b801561401a5760008060016101000a81548160ff0219169083151502179055505b50565b6140ba8363a9059cbb60e01b8484604051602401808373ffffffffffffffffffffffffffffffffffffffff16815260200182815260200192505050604051602081830303815290604052907bffffffffffffffffffffffffffffffffffffffffffffffffffffffff19166020820180517bffffffffffffffffffffffffffffffffffffffffffffffffffffffff83818316178352505050506144ae565b505050565b600060016099836040518082805190602001908083835b602083106140f957805182526020820191506020810190506020830392506140d6565b6001836020036101000a038019825116818451168082178552505050505050905001915050908152602001604051809103902060006101000a81548160ff021916908315150217905550919050565b614203846323b872dd60e01b858585604051602401808473ffffffffffffffffffffffffffffffffffffffff1681526020018373ffffffffffffffffffffffffffffffffffffffff1681526020018281526020019350505050604051602081830303815290604052907bffffffffffffffffffffffffffffffffffffffffffffffffffffffff19166020820180517bffffffffffffffffffffffffffffffffffffffffffffffffffffffff83818316178352505050506144ae565b50505050565b600060019054906101000a900460ff16806142285750614227613ef8565b5b8061423e575060008054906101000a900460ff16155b614293576040517f08c379a000000000000000000000000000000000000000000000000000000000815260040180806020018281038252602e815260200180614888602e913960400191505060405180910390fd5b60008060019054906101000a900460ff1615905080156142e3576001600060016101000a81548160ff02191690831515021790555060016000806101000a81548160ff0219169083151502179055505b80156143045760008060016101000a81548160ff0219169083151502179055505b50565b600060019054906101000a900460ff16806143265750614325613ef8565b5b8061433c575060008054906101000a900460ff16155b614391576040517f08c379a000000000000000000000000000000000000000000000000000000000815260040180806020018281038252602e815260200180614888602e913960400191505060405180910390fd5b60008060019054906101000a900460ff1615905080156143e1576001600060016101000a81548160ff02191690831515021790555060016000806101000a81548160ff0219169083151502179055505b60006143eb61366d565b905080606560006101000a81548173ffffffffffffffffffffffffffffffffffffffff021916908373ffffffffffffffffffffffffffffffffffffffff1602179055508073ffffffffffffffffffffffffffffffffffffffff16600073ffffffffffffffffffffffffffffffffffffffff167f8be0079c531659141344cd1fd0a4f28419497f9722a3daafe3b4186f6b6457e060405160405180910390a35080156144ab5760008060016101000a81548160ff0219169083151502179055505b50565b6144cd8273ffffffffffffffffffffffffffffffffffffffff166146f9565b61453f576040517f08c379a000000000000000000000000000000000000000000000000000000000815260040180806020018281038252601f8152602001807f5361666545524332303a2063616c6c20746f206e6f6e2d636f6e74726163740081525060200191505060405180910390fd5b600060608373ffffffffffffffffffffffffffffffffffffffff16836040518082805190602001908083835b6020831061458e578051825260208201915060208101905060208303925061456b565b6001836020036101000a0380198251168184511680821785525050505050509050019150506000604051808303816000865af19150503d80600081146145f0576040519150601f19603f3d011682016040523d82523d6000602084013e6145f5565b606091505b50915091508161466d576040517f08c379a00000000000000000000000000000000000000000000000000000000081526004018080602001828103825260208152602001807f5361666545524332303a206c6f772d6c6576656c2063616c6c206661696c656481525060200191505060405180910390fd5b6000815111156146f35780806020019051602081101561468c57600080fd5b81019080805190602001909291905050506146f2576040517f08c379a000000000000000000000000000000000000000000000000000000000815260040180806020018281038252602a8152602001806148b6602a913960400191505060405180910390fd5b5b50505050565b60008060007fc5d2460186f7233c927e7db2dcc703c0e500b653ca82273b7bfad8045d85a47060001b9050833f915080821415801561473b57506000801b8214155b92505050919050565b828054600181600116156101000203166002900490600052602060002090601f016020900481019282601f1061478557805160ff19168380011785556147b3565b828001600101855582156147b3579182015b828111156147b2578251825591602001919060010190614797565b5b5090506147c09190614844565b5090565b828054600181600116156101000203166002900490600052602060002090601f016020900481019282601f1061480557805160ff1916838001178555614833565b82800160010185558215614833579182015b82811115614832578251825591602001919060010190614817565b5b5090506148409190614844565b5090565b5b8082111561485d576000816000905550600101614845565b509056fe4f776e61626c653a206e6577206f776e657220697320746865207a65726f2061646472657373436f6e747261637420696e7374616e63652068617320616c7265616479206265656e20696e697469616c697a65645361666545524332303a204552433230206f7065726174696f6e20646964206e6f742073756363656564a2646970667358221220c6859915fb26304a72e01bc442f89fd9cb5b2efacd5d5e342351379df34cd23464736f6c634300060c0033",
  "immutableReferences": {},
  "source": "// SPDX-License-Identifier: MIT\npragma solidity ^0.6.0;\nimport \"@openzeppelin/contracts-ethereum-package/contracts/access/Ownable.sol\";\nimport './PayableByERC20.sol';\n\n/************\nTimeAtom is a decentralized keystore with timelocking feature. \nIt allows users to store and timelock data onchain. \nEntries are composed of an opening date, a timelocked content (available after date) and a public content that is not timelocked and can be consulted at any time \n******************* */\n   /*\n inherits :\n    transferOwnership from the owner account to a new one, and\n    renounceOwnership for the owner to relinquish this administrative privilege.\n    */\n\n\n\ncontract TimeAtom is OwnableUpgradeSafe, PayableByERC20 {   \n    /* atoms mapping : hashKey => var */\n    mapping(string => bool) atoms;    \n    mapping(string => string) timelocked_contents;\n    mapping(string => string) public_contents;    \n    mapping(string => uint256) atom_opening_date;\n    bytes[] atomList;\n    uint256 price_day;\n    uint256 entry_fee;   \n\n    /* EVENTS */\n    event AtomReady(address indexed _from, uint256 amount, bool _value);\n    event PaymentReceived(\n        address indexed _from,\n        address indexed _to,\n        uint256 amount\n    );\n    event BalanceTransferedToVault(\n        address indexed _from,\n        address indexed _to,\n        uint256 amount\n    );  \n    address payable private _vault_addr;\n    uint256 free_period;\n \n    // list of open atoms\n    mapping(string => bool) open_atoms;\n\n/*************\n  INIT\n*************/\n\n    function initialize() public initializer {\n        OwnableUpgradeSafe.__Ownable_init();\n        _vault_addr = 0x02E32DF164bAC1cA34D7f0FC95ad665e2A41D3cf;\n    }\n\n    function getVersion() public pure returns (string memory) {\n        return \"1.1.0\";\n    }\n\n/*************\n  ADMIN FN\n*************/\n    function transferBalanceToVault() public onlyOwner {\n        uint256 balance = address(this).balance;\n        (bool success, bytes memory data) = address(_vault_addr).call.value(balance).gas(gasleft())(\"\");\n        if(success) emit BalanceTransferedToVault(msg.sender, _vault_addr, balance);\n    }\n\n    function setVaultAddress(address payable new_address)\n        public\n        onlyOwner\n        returns (address)\n    {\n        _vault_addr = new_address;\n        return _vault_addr;\n    }\n\n function setFreePeriod(uint256 nb_days)\n        public\n        onlyOwner\n        returns (uint256)\n    {\n        free_period = nb_days;\n        return free_period;\n    }\n    function getFreePeriod() public view onlyOwner returns (uint256) {\n        return free_period;\n    }\n\n    function getBalance() public view onlyOwner returns (uint256) {\n        return address(this).balance;\n    }\n\n    /* sets the price per day fee, in xDAI/USD cents */\n    function setPricePerDay(uint256 fee) public onlyOwner returns (uint256) {\n        price_day = fee;\n        return price_day;\n    }\n\n    function getPricePerDay() public view onlyOwner returns (uint256) {\n        return price_day;\n    }\n\n    /* sets the entry fee, in xDAI/USD cents */\n    function setEntryFee(uint256 fee) public onlyOwner returns (uint256) {\n        entry_fee = fee;\n        return entry_fee;\n    }\n\n    function getEntryFee() public view onlyOwner returns (uint256) {\n        return entry_fee;\n    }\n\n    function getVaultAddress() public view onlyOwner returns (address) {\n        return _vault_addr;\n    }\n\n    function calculateFee(uint256 endDate) public view returns (uint256) {\n        uint256 nb_days;\n        uint256 total_price;\n        if (endDate > now) nb_days = (endDate - now) / 60 / 60 / 24;\n        if (nb_days < 1) nb_days = 1;\n        if(nb_days < free_period) {\n            total_price = 0;\n            } else {\n                total_price = ((price_day * nb_days) + entry_fee) * 10**16;//  16 , not 18 because our fees are in usd cents\n            }\n        return total_price; \n    }\n\n    function migrate_one(uint256 index)\n        public\n        view\n        onlyOwner\n        returns (bytes memory)\n    {\n        return atomList[index];\n    }\n\n/*************\n  KEYSTORE FN\n*************/\n\n\n    /*  function markAsOpened(string memory hashKey) public {\n        require(msg.sender == worker_addr, \"Unauthorized operation\");\n        if (atoms[hashKey]) open_atoms[hashKey] = true;\n    }\n    function hasBeenOpened(string memory hashKey)\n        public\n        view\n        returns (bool)\n    {\n        return open_atoms[hashKey];\n    }*/\n\n    function checkHashKey(string memory hashKey)\n        public\n        view\n        returns (bool)\n    {\n        return atoms[hashKey];\n    }\n\n    function makeAtom(\n        string memory hashKey,\n        string memory _public_content,\n        string memory _timelocked_content,\n        uint256 opening_date\n    ) public payable {\n        uint256 calculated_fee = calculateFee(opening_date);\n        if (msg.value < calculated_fee) {\n            revert(\"Insufficient Amount\");\n        }\n        if (!checkIfExists(hashKey)) {\n            registerAtom(hashKey,_public_content, _timelocked_content, opening_date, msg.value);\n            emit PaymentReceived(msg.sender, _vault_addr, msg.value);\n        } else {\n            revert(\"TimeAtom already exists\");\n        }\n    }\n    \n    function makeAtomERC20(\n        string memory erc20_name,\n        string memory name,\n        string memory _public_content,\n        string memory _timelocked_content,        \n        uint256 opening_date,\n        uint msgValue      \n    ) public {        \n         if (!checkIfExists(name)) {\n        uint fee = calculateFee(opening_date);\n        PayableByERC20.payWithERC20(erc20_name, fee, _vault_addr, msgValue);        \n        registerAtom(name, _timelocked_content,_public_content, opening_date, msgValue);        \n        }\n    }\n\n    function registerAtom(\n        string memory hashKey,\n        string memory _public_content,\n        string memory _timelocked_content,\n        uint256 opening_date,\n        uint256 fee\n    ) private {\n        if (!checkIfExists(hashKey)) {\n            // proceed with registering the atom\n            registerAtomHandle(hashKey);\n            public_contents[hashKey] = _public_content;\n            timelocked_contents[hashKey] = _timelocked_content;\n            atom_opening_date[hashKey] = opening_date;\n            atomList.push(\n                abi.encode(_timelocked_content, opening_date, hashKey)\n            );\n            emit AtomReady(msg.sender, fee, true);\n        } else {\n            revert(\"TimeAtom already already exists\");\n        }\n    }\n\n    function getAtom(string memory hashKey)\n        public\n        view\n        returns (bytes memory)\n    {\n        if (atoms[hashKey]) {\n            if (now > atom_opening_date[hashKey])\n                return\n                    abi.encode(\n                        timelocked_contents[hashKey],\n                        atom_opening_date[hashKey]\n                    );\n            else return abi.encode(\"0\", atom_opening_date[hashKey]);\n        } else return abi.encode(\"0\", 0);\n    }\n\n    function getPublicContent(string memory hashKey)\n        public\n        view\n        returns (bytes memory)\n    {\n        if (atoms[hashKey]) {            \n            return  abi.encode(public_contents[hashKey],atom_opening_date[hashKey]);          \n        } else return abi.encode(\"0\", 0);\n    }\n\n    function checkIfExists(string memory hashKey) private view returns (bool) {\n        return atoms[hashKey];\n    }\n\n    function registerAtomHandle(string memory hashKey)\n        private\n        returns (bool)\n    {\n        atoms[hashKey] = true;\n    }\n}\n",
  "sourcePath": "/media/revk/DATA/Dev/TimeApps/TimeDAO/Contracts/TimeAtom/contracts/TimeAtom.sol",
  "compiler": {
    "name": "solc",
    "version": "0.6.12+commit.27d51765.Emscripten.clang"
  },
  "schemaVersion": "3.4.1",
  "updatedAt": "2021-08-07T22:00:14.888Z",
  "networkType": "ethereum",
  "devdoc": {
    "kind": "dev",
    "methods": {
      "owner()": {
        "details": "Returns the address of the current owner."
      },
      "renounceOwnership()": {
        "details": "Leaves the contract without owner. It will not be possible to call `onlyOwner` functions anymore. Can only be called by the current owner. NOTE: Renouncing ownership will leave the contract without an owner, thereby removing any functionality that is only available to the owner."
      },
      "transferOwnership(address)": {
        "details": "Transfers ownership of the contract to a new account (`newOwner`). Can only be called by the current owner."
      }
    },
    "version": 1
  },
  "userdoc": {
    "kind": "user",
    "methods": {},
    "version": 1
  }
}